{
  "contractName": "AisthisiToken",
  "abi": [
    {
      "inputs": [],
      "stateMutability": "nonpayable",
      "type": "constructor"
    },
    {
      "anonymous": false,
      "inputs": [
        {
          "indexed": true,
          "internalType": "address",
          "name": "owner",
          "type": "address"
        },
        {
          "indexed": true,
          "internalType": "address",
          "name": "approved",
          "type": "address"
        },
        {
          "indexed": true,
          "internalType": "uint256",
          "name": "tokenId",
          "type": "uint256"
        }
      ],
      "name": "Approval",
      "type": "event"
    },
    {
      "anonymous": false,
      "inputs": [
        {
          "indexed": true,
          "internalType": "address",
          "name": "owner",
          "type": "address"
        },
        {
          "indexed": true,
          "internalType": "address",
          "name": "operator",
          "type": "address"
        },
        {
          "indexed": false,
          "internalType": "bool",
          "name": "approved",
          "type": "bool"
        }
      ],
      "name": "ApprovalForAll",
      "type": "event"
    },
    {
      "anonymous": false,
      "inputs": [
        {
          "indexed": false,
          "internalType": "address",
          "name": "account",
          "type": "address"
        }
      ],
      "name": "Paused",
      "type": "event"
    },
    {
      "anonymous": false,
      "inputs": [
        {
          "indexed": true,
          "internalType": "bytes32",
          "name": "role",
          "type": "bytes32"
        },
        {
          "indexed": true,
          "internalType": "bytes32",
          "name": "previousAdminRole",
          "type": "bytes32"
        },
        {
          "indexed": true,
          "internalType": "bytes32",
          "name": "newAdminRole",
          "type": "bytes32"
        }
      ],
      "name": "RoleAdminChanged",
      "type": "event"
    },
    {
      "anonymous": false,
      "inputs": [
        {
          "indexed": true,
          "internalType": "bytes32",
          "name": "role",
          "type": "bytes32"
        },
        {
          "indexed": true,
          "internalType": "address",
          "name": "account",
          "type": "address"
        },
        {
          "indexed": true,
          "internalType": "address",
          "name": "sender",
          "type": "address"
        }
      ],
      "name": "RoleGranted",
      "type": "event"
    },
    {
      "anonymous": false,
      "inputs": [
        {
          "indexed": true,
          "internalType": "bytes32",
          "name": "role",
          "type": "bytes32"
        },
        {
          "indexed": true,
          "internalType": "address",
          "name": "account",
          "type": "address"
        },
        {
          "indexed": true,
          "internalType": "address",
          "name": "sender",
          "type": "address"
        }
      ],
      "name": "RoleRevoked",
      "type": "event"
    },
    {
      "anonymous": false,
      "inputs": [
        {
          "indexed": false,
          "internalType": "uint256",
          "name": "tokenId",
          "type": "uint256"
        },
        {
          "indexed": false,
          "internalType": "address",
          "name": "unlockerAddress",
          "type": "address"
        }
      ],
      "name": "TokenUnlocked",
      "type": "event"
    },
    {
      "anonymous": false,
      "inputs": [
        {
          "indexed": true,
          "internalType": "address",
          "name": "from",
          "type": "address"
        },
        {
          "indexed": true,
          "internalType": "address",
          "name": "to",
          "type": "address"
        },
        {
          "indexed": true,
          "internalType": "uint256",
          "name": "tokenId",
          "type": "uint256"
        }
      ],
      "name": "Transfer",
      "type": "event"
    },
    {
      "anonymous": false,
      "inputs": [
        {
          "indexed": false,
          "internalType": "address",
          "name": "account",
          "type": "address"
        }
      ],
      "name": "Unpaused",
      "type": "event"
    },
    {
      "inputs": [],
      "name": "DEFAULT_ADMIN_ROLE",
      "outputs": [
        {
          "internalType": "bytes32",
          "name": "",
          "type": "bytes32"
        }
      ],
      "stateMutability": "view",
      "type": "function",
      "constant": true
    },
    {
      "inputs": [],
      "name": "MINTER_ROLE",
      "outputs": [
        {
          "internalType": "bytes32",
          "name": "",
          "type": "bytes32"
        }
      ],
      "stateMutability": "view",
      "type": "function",
      "constant": true
    },
    {
      "inputs": [],
      "name": "PAUSER_ROLE",
      "outputs": [
        {
          "internalType": "bytes32",
          "name": "",
          "type": "bytes32"
        }
      ],
      "stateMutability": "view",
      "type": "function",
      "constant": true
    },
    {
      "inputs": [
        {
          "internalType": "address",
          "name": "to",
          "type": "address"
        },
        {
          "internalType": "uint256",
          "name": "tokenId",
          "type": "uint256"
        }
      ],
      "name": "approve",
      "outputs": [],
      "stateMutability": "nonpayable",
      "type": "function"
    },
    {
      "inputs": [
        {
          "internalType": "address",
          "name": "owner",
          "type": "address"
        }
      ],
      "name": "balanceOf",
      "outputs": [
        {
          "internalType": "uint256",
          "name": "",
          "type": "uint256"
        }
      ],
      "stateMutability": "view",
      "type": "function",
      "constant": true
    },
    {
      "inputs": [
        {
          "internalType": "uint256",
          "name": "tokenId",
          "type": "uint256"
        }
      ],
      "name": "burn",
      "outputs": [],
      "stateMutability": "nonpayable",
      "type": "function"
    },
    {
      "inputs": [
        {
          "internalType": "uint256",
          "name": "tokenId",
          "type": "uint256"
        }
      ],
      "name": "getApproved",
      "outputs": [
        {
          "internalType": "address",
          "name": "",
          "type": "address"
        }
      ],
      "stateMutability": "view",
      "type": "function",
      "constant": true
    },
    {
      "inputs": [
        {
          "internalType": "bytes32",
          "name": "role",
          "type": "bytes32"
        }
      ],
      "name": "getRoleAdmin",
      "outputs": [
        {
          "internalType": "bytes32",
          "name": "",
          "type": "bytes32"
        }
      ],
      "stateMutability": "view",
      "type": "function",
      "constant": true
    },
    {
      "inputs": [
        {
          "internalType": "bytes32",
          "name": "role",
          "type": "bytes32"
        },
        {
          "internalType": "uint256",
          "name": "index",
          "type": "uint256"
        }
      ],
      "name": "getRoleMember",
      "outputs": [
        {
          "internalType": "address",
          "name": "",
          "type": "address"
        }
      ],
      "stateMutability": "view",
      "type": "function",
      "constant": true
    },
    {
      "inputs": [
        {
          "internalType": "bytes32",
          "name": "role",
          "type": "bytes32"
        }
      ],
      "name": "getRoleMemberCount",
      "outputs": [
        {
          "internalType": "uint256",
          "name": "",
          "type": "uint256"
        }
      ],
      "stateMutability": "view",
      "type": "function",
      "constant": true
    },
    {
      "inputs": [
        {
          "internalType": "bytes32",
          "name": "role",
          "type": "bytes32"
        },
        {
          "internalType": "address",
          "name": "account",
          "type": "address"
        }
      ],
      "name": "grantRole",
      "outputs": [],
      "stateMutability": "nonpayable",
      "type": "function"
    },
    {
      "inputs": [
        {
          "internalType": "bytes32",
          "name": "role",
          "type": "bytes32"
        },
        {
          "internalType": "address",
          "name": "account",
          "type": "address"
        }
      ],
      "name": "hasRole",
      "outputs": [
        {
          "internalType": "bool",
          "name": "",
          "type": "bool"
        }
      ],
      "stateMutability": "view",
      "type": "function",
      "constant": true
    },
    {
      "inputs": [
        {
          "internalType": "address",
          "name": "owner",
          "type": "address"
        },
        {
          "internalType": "address",
          "name": "operator",
          "type": "address"
        }
      ],
      "name": "isApprovedForAll",
      "outputs": [
        {
          "internalType": "bool",
          "name": "",
          "type": "bool"
        }
      ],
      "stateMutability": "view",
      "type": "function",
      "constant": true
    },
    {
      "inputs": [],
      "name": "name",
      "outputs": [
        {
          "internalType": "string",
          "name": "",
          "type": "string"
        }
      ],
      "stateMutability": "view",
      "type": "function",
      "constant": true
    },
    {
      "inputs": [
        {
          "internalType": "uint256",
          "name": "tokenId",
          "type": "uint256"
        }
      ],
      "name": "ownerOf",
      "outputs": [
        {
          "internalType": "address",
          "name": "",
          "type": "address"
        }
      ],
      "stateMutability": "view",
      "type": "function",
      "constant": true
    },
    {
      "inputs": [],
      "name": "pause",
      "outputs": [],
      "stateMutability": "nonpayable",
      "type": "function"
    },
    {
      "inputs": [],
      "name": "paused",
      "outputs": [
        {
          "internalType": "bool",
          "name": "",
          "type": "bool"
        }
      ],
      "stateMutability": "view",
      "type": "function",
      "constant": true
    },
    {
      "inputs": [
        {
          "internalType": "bytes32",
          "name": "role",
          "type": "bytes32"
        },
        {
          "internalType": "address",
          "name": "account",
          "type": "address"
        }
      ],
      "name": "renounceRole",
      "outputs": [],
      "stateMutability": "nonpayable",
      "type": "function"
    },
    {
      "inputs": [
        {
          "internalType": "bytes32",
          "name": "role",
          "type": "bytes32"
        },
        {
          "internalType": "address",
          "name": "account",
          "type": "address"
        }
      ],
      "name": "revokeRole",
      "outputs": [],
      "stateMutability": "nonpayable",
      "type": "function"
    },
    {
      "inputs": [
        {
          "internalType": "address",
          "name": "from",
          "type": "address"
        },
        {
          "internalType": "address",
          "name": "to",
          "type": "address"
        },
        {
          "internalType": "uint256",
          "name": "tokenId",
          "type": "uint256"
        }
      ],
      "name": "safeTransferFrom",
      "outputs": [],
      "stateMutability": "nonpayable",
      "type": "function"
    },
    {
      "inputs": [
        {
          "internalType": "address",
          "name": "from",
          "type": "address"
        },
        {
          "internalType": "address",
          "name": "to",
          "type": "address"
        },
        {
          "internalType": "uint256",
          "name": "tokenId",
          "type": "uint256"
        },
        {
          "internalType": "bytes",
          "name": "data",
          "type": "bytes"
        }
      ],
      "name": "safeTransferFrom",
      "outputs": [],
      "stateMutability": "nonpayable",
      "type": "function"
    },
    {
      "inputs": [
        {
          "internalType": "address",
          "name": "operator",
          "type": "address"
        },
        {
          "internalType": "bool",
          "name": "approved",
          "type": "bool"
        }
      ],
      "name": "setApprovalForAll",
      "outputs": [],
      "stateMutability": "nonpayable",
      "type": "function"
    },
    {
      "inputs": [
        {
          "internalType": "bytes4",
          "name": "interfaceId",
          "type": "bytes4"
        }
      ],
      "name": "supportsInterface",
      "outputs": [
        {
          "internalType": "bool",
          "name": "",
          "type": "bool"
        }
      ],
      "stateMutability": "view",
      "type": "function",
      "constant": true
    },
    {
      "inputs": [],
      "name": "symbol",
      "outputs": [
        {
          "internalType": "string",
          "name": "",
          "type": "string"
        }
      ],
      "stateMutability": "view",
      "type": "function",
      "constant": true
    },
    {
      "inputs": [
        {
          "internalType": "uint256",
          "name": "index",
          "type": "uint256"
        }
      ],
      "name": "tokenByIndex",
      "outputs": [
        {
          "internalType": "uint256",
          "name": "",
          "type": "uint256"
        }
      ],
      "stateMutability": "view",
      "type": "function",
      "constant": true
    },
    {
      "inputs": [
        {
          "internalType": "uint256",
          "name": "",
          "type": "uint256"
        }
      ],
      "name": "tokenLockedFromTimestamp",
      "outputs": [
        {
          "internalType": "uint256",
          "name": "",
          "type": "uint256"
        }
      ],
      "stateMutability": "view",
      "type": "function",
      "constant": true
    },
    {
      "inputs": [
        {
          "internalType": "address",
          "name": "owner",
          "type": "address"
        },
        {
          "internalType": "uint256",
          "name": "index",
          "type": "uint256"
        }
      ],
      "name": "tokenOfOwnerByIndex",
      "outputs": [
        {
          "internalType": "uint256",
          "name": "",
          "type": "uint256"
        }
      ],
      "stateMutability": "view",
      "type": "function",
      "constant": true
    },
    {
      "inputs": [
        {
          "internalType": "uint256",
          "name": "",
          "type": "uint256"
        }
      ],
      "name": "tokenUnlockCodeHashes",
      "outputs": [
        {
          "internalType": "bytes32",
          "name": "",
          "type": "bytes32"
        }
      ],
      "stateMutability": "view",
      "type": "function",
      "constant": true
    },
    {
      "inputs": [
        {
          "internalType": "uint256",
          "name": "",
          "type": "uint256"
        }
      ],
      "name": "tokenUnlocked",
      "outputs": [
        {
          "internalType": "bool",
          "name": "",
          "type": "bool"
        }
      ],
      "stateMutability": "view",
      "type": "function",
      "constant": true
    },
    {
      "inputs": [],
      "name": "totalSupply",
      "outputs": [
        {
          "internalType": "uint256",
          "name": "",
          "type": "uint256"
        }
      ],
      "stateMutability": "view",
      "type": "function",
      "constant": true
    },
    {
      "inputs": [
        {
          "internalType": "address",
          "name": "from",
          "type": "address"
        },
        {
          "internalType": "address",
          "name": "to",
          "type": "address"
        },
        {
          "internalType": "uint256",
          "name": "tokenId",
          "type": "uint256"
        }
      ],
      "name": "transferFrom",
      "outputs": [],
      "stateMutability": "nonpayable",
      "type": "function"
    },
    {
      "inputs": [],
      "name": "unpause",
      "outputs": [],
      "stateMutability": "nonpayable",
      "type": "function"
    },
    {
      "inputs": [
        {
          "internalType": "bytes32",
          "name": "unlockHash",
          "type": "bytes32"
        },
        {
          "internalType": "uint256",
          "name": "tokenId",
          "type": "uint256"
        }
      ],
      "name": "unlockToken",
      "outputs": [],
      "stateMutability": "nonpayable",
      "type": "function"
    },
    {
      "inputs": [
        {
          "internalType": "address",
          "name": "to",
          "type": "address"
        },
        {
          "internalType": "uint256",
          "name": "lockedFromTimestamp",
          "type": "uint256"
        },
        {
          "internalType": "bytes32",
          "name": "unlockHash",
          "type": "bytes32"
        }
      ],
      "name": "mint",
      "outputs": [],
      "stateMutability": "nonpayable",
      "type": "function"
    },
    {
      "inputs": [
        {
          "internalType": "address",
          "name": "to",
          "type": "address"
        }
      ],
      "name": "mint",
      "outputs": [],
      "stateMutability": "nonpayable",
      "type": "function"
    },
    {
      "inputs": [
        {
          "internalType": "uint256",
          "name": "tokenId",
          "type": "uint256"
        }
      ],
      "name": "tokenURI",
      "outputs": [
        {
          "internalType": "string",
          "name": "",
          "type": "string"
        }
      ],
      "stateMutability": "view",
      "type": "function",
      "constant": true
    }
  ],
  "bytecode": "0x60806040523480156200001157600080fd5b506040518060400160405280600d81526020017f4169737468697369546f6b656e000000000000000000000000000000000000008152506040518060400160405280600381526020017f41495300000000000000000000000000000000000000000000000000000000008152506040518060400160405280601e81526020017f68747470733a2f2f61697374686973692e6172742f6d657461646174612f000081525082828160029080519060200190620000ce92919062000463565b508060039080519060200190620000e792919062000463565b5050506000600c60006101000a81548160ff02191690831515021790555080600e90805190602001906200011d92919062000463565b50620001426000801b62000136620001cd60201b60201c565b620001d560201b60201c565b620001837f9f2df0fed2c77648de5860a4cc508cd0818c85b8b8a1ab4ceeef8d981c8956a662000177620001cd60201b60201c565b620001d560201b60201c565b620001c47f65d7a28e3265b37a6474929f336521b332c1681b933f6cb9f3376673440d862a620001b8620001cd60201b60201c565b620001d560201b60201c565b50505062000578565b600033905090565b620001e78282620001eb60201b60201c565b5050565b6200020282826200023360201b620014161760201c565b6200022e81600160008581526020019081526020016000206200032460201b620014f61790919060201c565b505050565b6200024582826200035c60201b60201c565b6200032057600160008084815260200190815260200160002060000160008373ffffffffffffffffffffffffffffffffffffffff1673ffffffffffffffffffffffffffffffffffffffff16815260200190815260200160002060006101000a81548160ff021916908315150217905550620002c5620001cd60201b60201c565b73ffffffffffffffffffffffffffffffffffffffff168173ffffffffffffffffffffffffffffffffffffffff16837f2f8788117e7eff1d82e926ec794901d17c78024a50270940304540a733656f0d60405160405180910390a45b5050565b600062000354836000018373ffffffffffffffffffffffffffffffffffffffff1660001b620003c660201b60201c565b905092915050565b600080600084815260200190815260200160002060000160008373ffffffffffffffffffffffffffffffffffffffff1673ffffffffffffffffffffffffffffffffffffffff16815260200190815260200160002060009054906101000a900460ff16905092915050565b6000620003da83836200044060201b60201c565b620004355782600001829080600181540180825580915050600190039060005260206000200160009091909190915055826000018054905083600101600084815260200190815260200160002081905550600190506200043a565b600090505b92915050565b600080836001016000848152602001908152602001600020541415905092915050565b828054620004719062000513565b90600052602060002090601f016020900481019282620004955760008555620004e1565b82601f10620004b057805160ff1916838001178555620004e1565b82800160010185558215620004e1579182015b82811115620004e0578251825591602001919060010190620004c3565b5b509050620004f09190620004f4565b5090565b5b808211156200050f576000816000905550600101620004f5565b5090565b600060028204905060018216806200052c57607f821691505b6020821081141562000543576200054262000549565b5b50919050565b7f4e487b7100000000000000000000000000000000000000000000000000000000600052602260045260246000fd5b614cf480620005886000396000f3fe608060405234801561001057600080fd5b506004361061021c5760003560e01c80636352211e11610125578063a3c3e1bd116100ad578063ca15c8731161007c578063ca15c8731461066f578063d53913931461069f578063d547741f146106bd578063e63ab1e9146106d9578063e985e9c5146106f75761021c565b8063a3c3e1bd146105d7578063b88d4fde146105f3578063c4d271be1461060f578063c87b56dd1461063f5761021c565b80639010d07c116100f45780639010d07c1461051f57806391d148541461054f57806395d89b411461057f578063a217fddf1461059d578063a22cb465146105bb5761021c565b80636352211e146104995780636a627842146104c957806370a08231146104e55780638456cb59146105155761021c565b80632f2ff15d116101a857806342842e0e1161017757806342842e0e146103e357806342966c68146103ff5780634f6ccce71461041b57806351f6b2e81461044b5780635c975abb1461047b5761021c565b80632f2ff15d146103715780632f745c591461038d57806336568abe146103bd5780633f4ba83a146103d95761021c565b8063095ea7b3116101ef578063095ea7b3146102cf57806318160ddd146102eb5780631e458bee1461030957806323b872dd14610325578063248a9ca3146103415761021c565b806301ffc9a71461022157806303017e421461025157806306fdde0314610281578063081812fc1461029f575b600080fd5b61023b600480360381019061023691906137c8565b610727565b6040516102489190613dba565b60405180910390f35b61026b6004803603810190610266919061381a565b610739565b6040516102789190613dd5565b60405180910390f35b610289610751565b6040516102969190613df0565b60405180910390f35b6102b960048036038101906102b4919061381a565b6107e3565b6040516102c69190613d53565b60405180910390f35b6102e960048036038101906102e4919061369c565b610829565b005b6102f3610941565b6040516103009190614112565b60405180910390f35b610323600480360381019061031e91906136d8565b61094e565b005b61033f600480360381019061033a9190613596565b6109a8565b005b61035b60048036038101906103569190613727565b610a08565b6040516103689190613dd5565b60405180910390f35b61038b60048036038101906103869190613750565b610a27565b005b6103a760048036038101906103a2919061369c565b610a48565b6040516103b49190614112565b60405180910390f35b6103d760048036038101906103d29190613750565b610aed565b005b6103e1610b70565b005b6103fd60048036038101906103f89190613596565b610bea565b005b6104196004803603810190610414919061381a565b610c0a565b005b6104356004803603810190610430919061381a565b610c66565b6040516104429190614112565b60405180910390f35b6104656004803603810190610460919061381a565b610cfd565b6040516104729190614112565b60405180910390f35b610483610d15565b6040516104909190613dba565b60405180910390f35b6104b360048036038101906104ae919061381a565b610d2c565b6040516104c09190613d53565b60405180910390f35b6104e360048036038101906104de9190613531565b610dde565b005b6104ff60048036038101906104fa9190613531565b610e6e565b60405161050c9190614112565b60405180910390f35b61051d610f26565b005b6105396004803603810190610534919061378c565b610fa0565b6040516105469190613d53565b60405180910390f35b61056960048036038101906105649190613750565b610fcf565b6040516105769190613dba565b60405180910390f35b610587611039565b6040516105949190613df0565b60405180910390f35b6105a56110cb565b6040516105b29190613dd5565b60405180910390f35b6105d560048036038101906105d09190613660565b6110d2565b005b6105f160048036038101906105ec919061378c565b6110e8565b005b61060d600480360381019061060891906135e5565b611242565b005b6106296004803603810190610624919061381a565b6112a4565b6040516106369190613dba565b60405180910390f35b6106596004803603810190610654919061381a565b6112c4565b6040516106669190613df0565b60405180910390f35b61068960048036038101906106849190613727565b6112f5565b6040516106969190614112565b60405180910390f35b6106a7611319565b6040516106b49190613dd5565b60405180910390f35b6106d760048036038101906106d29190613750565b61133d565b005b6106e161135e565b6040516106ee9190613dd5565b60405180910390f35b610711600480360381019061070c919061355a565b611382565b60405161071e9190613dba565b60405180910390f35b600061073282611526565b9050919050565b60116020528060005260406000206000915090505481565b606060028054610760906143ee565b80601f016020809104026020016040519081016040528092919081815260200182805461078c906143ee565b80156107d95780601f106107ae576101008083540402835291602001916107d9565b820191906000526020600020905b8154815290600101906020018083116107bc57829003601f168201915b5050505050905090565b60006107ee826115a0565b6006600083815260200190815260200160002060009054906101000a900473ffffffffffffffffffffffffffffffffffffffff169050919050565b600061083482610d2c565b90508073ffffffffffffffffffffffffffffffffffffffff168373ffffffffffffffffffffffffffffffffffffffff1614156108a5576040517f08c379a000000000000000000000000000000000000000000000000000000000815260040161089c90614032565b60405180910390fd5b8073ffffffffffffffffffffffffffffffffffffffff166108c46115eb565b73ffffffffffffffffffffffffffffffffffffffff1614806108f357506108f2816108ed6115eb565b611382565b5b610932576040517f08c379a000000000000000000000000000000000000000000000000000000000815260040161092990613fd2565b60405180910390fd5b61093c83836115f3565b505050565b6000600a80549050905090565b816010600061095d600f6116ac565b815260200190815260200160002081905550806011600061097e600f6116ac565b81526020019081526020016000208190555061099a600f6116ba565b6109a383610dde565b505050565b6109b96109b36115eb565b826116d0565b6109f8576040517f08c379a00000000000000000000000000000000000000000000000000000000081526004016109ef90614092565b60405180910390fd5b610a03838383611765565b505050565b6000806000838152602001908152602001600020600101549050919050565b610a3082610a08565b610a39816119cc565b610a4383836119e0565b505050565b6000610a5383610e6e565b8210610a94576040517f08c379a0000000000000000000000000000000000000000000000000000000008152600401610a8b90613e72565b60405180910390fd5b600860008473ffffffffffffffffffffffffffffffffffffffff1673ffffffffffffffffffffffffffffffffffffffff168152602001908152602001600020600083815260200190815260200160002054905092915050565b610af56115eb565b73ffffffffffffffffffffffffffffffffffffffff168173ffffffffffffffffffffffffffffffffffffffff1614610b62576040517f08c379a0000000000000000000000000000000000000000000000000000000008152600401610b59906140f2565b60405180910390fd5b610b6c8282611a14565b5050565b610ba17f65d7a28e3265b37a6474929f336521b332c1681b933f6cb9f3376673440d862a610b9c6115eb565b610fcf565b610be0576040517f08c379a0000000000000000000000000000000000000000000000000000000008152600401610bd7906140d2565b60405180910390fd5b610be8611a48565b565b610c0583838360405180602001604052806000815250611242565b505050565b610c1b610c156115eb565b826116d0565b610c5a576040517f08c379a0000000000000000000000000000000000000000000000000000000008152600401610c5190614092565b60405180910390fd5b610c6381611aab565b50565b6000610c70610941565b8210610cb1576040517f08c379a0000000000000000000000000000000000000000000000000000000008152600401610ca890614052565b60405180910390fd5b600a8281548110610ceb577f4e487b7100000000000000000000000000000000000000000000000000000000600052603260045260246000fd5b90600052602060002001549050919050565b60106020528060005260406000206000915090505481565b6000600c60009054906101000a900460ff16905090565b6000806004600084815260200190815260200160002060009054906101000a900473ffffffffffffffffffffffffffffffffffffffff169050600073ffffffffffffffffffffffffffffffffffffffff168173ffffffffffffffffffffffffffffffffffffffff161415610dd5576040517f08c379a0000000000000000000000000000000000000000000000000000000008152600401610dcc90614012565b60405180910390fd5b80915050919050565b610e0f7f9f2df0fed2c77648de5860a4cc508cd0818c85b8b8a1ab4ceeef8d981c8956a6610e0a6115eb565b610fcf565b610e4e576040517f08c379a0000000000000000000000000000000000000000000000000000000008152600401610e4590614072565b60405180910390fd5b610e6181610e5c600d6116ac565b611bc8565b610e6b600d6116ba565b50565b60008073ffffffffffffffffffffffffffffffffffffffff168273ffffffffffffffffffffffffffffffffffffffff161415610edf576040517f08c379a0000000000000000000000000000000000000000000000000000000008152600401610ed690613f92565b60405180910390fd5b600560008373ffffffffffffffffffffffffffffffffffffffff1673ffffffffffffffffffffffffffffffffffffffff168152602001908152602001600020549050919050565b610f577f65d7a28e3265b37a6474929f336521b332c1681b933f6cb9f3376673440d862a610f526115eb565b610fcf565b610f96576040517f08c379a0000000000000000000000000000000000000000000000000000000008152600401610f8d90613f12565b60405180910390fd5b610f9e611da2565b565b6000610fc78260016000868152602001908152602001600020611e0590919063ffffffff16565b905092915050565b600080600084815260200190815260200160002060000160008373ffffffffffffffffffffffffffffffffffffffff1673ffffffffffffffffffffffffffffffffffffffff16815260200190815260200160002060009054906101000a900460ff16905092915050565b606060038054611048906143ee565b80601f0160208091040260200160405190810160405280929190818152602001828054611074906143ee565b80156110c15780601f10611096576101008083540402835291602001916110c1565b820191906000526020600020905b8154815290600101906020018083116110a457829003601f168201915b5050505050905090565b6000801b81565b6110e46110dd6115eb565b8383611e1f565b5050565b6110f181610d2c565b73ffffffffffffffffffffffffffffffffffffffff163373ffffffffffffffffffffffffffffffffffffffff161461115e576040517f08c379a0000000000000000000000000000000000000000000000000000000008152600401611155906140b2565b60405180910390fd5b6011600082815260200190815260200160002054826040516020016111839190613dd5565b60405160208183030381529060405280519060200120146111d9576040517f08c379a00000000000000000000000000000000000000000000000000000000081526004016111d090613fb2565b60405180910390fd5b60016012600083815260200190815260200160002060006101000a81548160ff0219169083151502179055507f0fe7d9801197f79ef3b1595d19379eb58f0fff5f98b0f6d6f34c03cae5306c37813360405161123692919061412d565b60405180910390a15050565b61125361124d6115eb565b836116d0565b611292576040517f08c379a000000000000000000000000000000000000000000000000000000000815260040161128990614092565b60405180910390fd5b61129e84848484611f8c565b50505050565b60126020528060005260406000206000915054906101000a900460ff1681565b60606112cf82611fe8565b6040516020016112df9190613cf7565b6040516020818303038152906040529050919050565b600061131260016000848152602001908152602001600020612050565b9050919050565b7f9f2df0fed2c77648de5860a4cc508cd0818c85b8b8a1ab4ceeef8d981c8956a681565b61134682610a08565b61134f816119cc565b6113598383611a14565b505050565b7f65d7a28e3265b37a6474929f336521b332c1681b933f6cb9f3376673440d862a81565b6000600760008473ffffffffffffffffffffffffffffffffffffffff1673ffffffffffffffffffffffffffffffffffffffff16815260200190815260200160002060008373ffffffffffffffffffffffffffffffffffffffff1673ffffffffffffffffffffffffffffffffffffffff16815260200190815260200160002060009054906101000a900460ff16905092915050565b6114208282610fcf565b6114f257600160008084815260200190815260200160002060000160008373ffffffffffffffffffffffffffffffffffffffff1673ffffffffffffffffffffffffffffffffffffffff16815260200190815260200160002060006101000a81548160ff0219169083151502179055506114976115eb565b73ffffffffffffffffffffffffffffffffffffffff168173ffffffffffffffffffffffffffffffffffffffff16837f2f8788117e7eff1d82e926ec794901d17c78024a50270940304540a733656f0d60405160405180910390a45b5050565b600061151e836000018373ffffffffffffffffffffffffffffffffffffffff1660001b612065565b905092915050565b60007f780e9d63000000000000000000000000000000000000000000000000000000007bffffffffffffffffffffffffffffffffffffffffffffffffffffffff1916827bffffffffffffffffffffffffffffffffffffffffffffffffffffffff191614806115995750611598826120d5565b5b9050919050565b6115a9816121b7565b6115e8576040517f08c379a00000000000000000000000000000000000000000000000000000000081526004016115df90614012565b60405180910390fd5b50565b600033905090565b816006600083815260200190815260200160002060006101000a81548173ffffffffffffffffffffffffffffffffffffffff021916908373ffffffffffffffffffffffffffffffffffffffff160217905550808273ffffffffffffffffffffffffffffffffffffffff1661166683610d2c565b73ffffffffffffffffffffffffffffffffffffffff167f8c5be1e5ebec7d5bd14f71427d1e84f3dd0314c0f7b2291e5b200ac8c7c3b92560405160405180910390a45050565b600081600001549050919050565b6001816000016000828254019250508190555050565b6000806116dc83610d2c565b90508073ffffffffffffffffffffffffffffffffffffffff168473ffffffffffffffffffffffffffffffffffffffff16148061171e575061171d8185611382565b5b8061175c57508373ffffffffffffffffffffffffffffffffffffffff16611744846107e3565b73ffffffffffffffffffffffffffffffffffffffff16145b91505092915050565b8273ffffffffffffffffffffffffffffffffffffffff1661178582610d2c565b73ffffffffffffffffffffffffffffffffffffffff16146117db576040517f08c379a00000000000000000000000000000000000000000000000000000000081526004016117d290613eb2565b60405180910390fd5b600073ffffffffffffffffffffffffffffffffffffffff168273ffffffffffffffffffffffffffffffffffffffff16141561184b576040517f08c379a000000000000000000000000000000000000000000000000000000000815260040161184290613f32565b60405180910390fd5b611856838383612223565b6118616000826115f3565b6001600560008573ffffffffffffffffffffffffffffffffffffffff1673ffffffffffffffffffffffffffffffffffffffff16815260200190815260200160002060008282546118b191906142d0565b925050819055506001600560008473ffffffffffffffffffffffffffffffffffffffff1673ffffffffffffffffffffffffffffffffffffffff168152602001908152602001600020600082825461190891906141ef565b92505081905550816004600083815260200190815260200160002060006101000a81548173ffffffffffffffffffffffffffffffffffffffff021916908373ffffffffffffffffffffffffffffffffffffffff160217905550808273ffffffffffffffffffffffffffffffffffffffff168473ffffffffffffffffffffffffffffffffffffffff167fddf252ad1be2c89b69c2b068fc378daa952ba7f163c4a11628f55a4df523b3ef60405160405180910390a46119c78383836122b0565b505050565b6119dd816119d86115eb565b6122b5565b50565b6119ea8282611416565b611a0f81600160008581526020019081526020016000206114f690919063ffffffff16565b505050565b611a1e8282612352565b611a43816001600085815260200190815260200160002061243390919063ffffffff16565b505050565b611a50612463565b6000600c60006101000a81548160ff0219169083151502179055507f5db9ee0a495bf2e6ff9c91a7834c1ba4fdd244a5e8aa4e537bd38aeae4b073aa611a946115eb565b604051611aa19190613d53565b60405180910390a1565b6000611ab682610d2c565b9050611ac481600084612223565b611acf6000836115f3565b6001600560008373ffffffffffffffffffffffffffffffffffffffff1673ffffffffffffffffffffffffffffffffffffffff1681526020019081526020016000206000828254611b1f91906142d0565b925050819055506004600083815260200190815260200160002060006101000a81549073ffffffffffffffffffffffffffffffffffffffff021916905581600073ffffffffffffffffffffffffffffffffffffffff168273ffffffffffffffffffffffffffffffffffffffff167fddf252ad1be2c89b69c2b068fc378daa952ba7f163c4a11628f55a4df523b3ef60405160405180910390a4611bc4816000846122b0565b5050565b600073ffffffffffffffffffffffffffffffffffffffff168273ffffffffffffffffffffffffffffffffffffffff161415611c38576040517f08c379a0000000000000000000000000000000000000000000000000000000008152600401611c2f90613ff2565b60405180910390fd5b611c41816121b7565b15611c81576040517f08c379a0000000000000000000000000000000000000000000000000000000008152600401611c7890613ed2565b60405180910390fd5b611c8d60008383612223565b6001600560008473ffffffffffffffffffffffffffffffffffffffff1673ffffffffffffffffffffffffffffffffffffffff1681526020019081526020016000206000828254611cdd91906141ef565b92505081905550816004600083815260200190815260200160002060006101000a81548173ffffffffffffffffffffffffffffffffffffffff021916908373ffffffffffffffffffffffffffffffffffffffff160217905550808273ffffffffffffffffffffffffffffffffffffffff16600073ffffffffffffffffffffffffffffffffffffffff167fddf252ad1be2c89b69c2b068fc378daa952ba7f163c4a11628f55a4df523b3ef60405160405180910390a4611d9e600083836122b0565b5050565b611daa6124ac565b6001600c60006101000a81548160ff0219169083151502179055507f62e78cea01bee320cd4e420270b5ea74000d11b0c9f74754ebdbfc544b05a258611dee6115eb565b604051611dfb9190613d53565b60405180910390a1565b6000611e1483600001836124f6565b60001c905092915050565b8173ffffffffffffffffffffffffffffffffffffffff168373ffffffffffffffffffffffffffffffffffffffff161415611e8e576040517f08c379a0000000000000000000000000000000000000000000000000000000008152600401611e8590613f52565b60405180910390fd5b80600760008573ffffffffffffffffffffffffffffffffffffffff1673ffffffffffffffffffffffffffffffffffffffff16815260200190815260200160002060008473ffffffffffffffffffffffffffffffffffffffff1673ffffffffffffffffffffffffffffffffffffffff16815260200190815260200160002060006101000a81548160ff0219169083151502179055508173ffffffffffffffffffffffffffffffffffffffff168373ffffffffffffffffffffffffffffffffffffffff167f17307eab39ab6107e8899845ad3d59bd9653f200f220920489ca2b5937696c3183604051611f7f9190613dba565b60405180910390a3505050565b611f97848484611765565b611fa384848484612547565b611fe2576040517f08c379a0000000000000000000000000000000000000000000000000000000008152600401611fd990613e92565b60405180910390fd5b50505050565b6060611ff3826115a0565b6000611ffd6126de565b9050600081511161201d5760405180602001604052806000815250612048565b8061202784612770565b604051602001612038929190613cd3565b6040516020818303038152906040525b915050919050565b600061205e8260000161291d565b9050919050565b6000612071838361292e565b6120ca5782600001829080600181540180825580915050600190039060005260206000200160009091909190915055826000018054905083600101600084815260200190815260200160002081905550600190506120cf565b600090505b92915050565b60007f80ac58cd000000000000000000000000000000000000000000000000000000007bffffffffffffffffffffffffffffffffffffffffffffffffffffffff1916827bffffffffffffffffffffffffffffffffffffffffffffffffffffffff191614806121a057507f5b5e139f000000000000000000000000000000000000000000000000000000007bffffffffffffffffffffffffffffffffffffffffffffffffffffffff1916827bffffffffffffffffffffffffffffffffffffffffffffffffffffffff1916145b806121b057506121af82612951565b5b9050919050565b60008073ffffffffffffffffffffffffffffffffffffffff166004600084815260200190815260200160002060009054906101000a900473ffffffffffffffffffffffffffffffffffffffff1673ffffffffffffffffffffffffffffffffffffffff1614159050919050565b426010600083815260200190815260200160002054118061226157506012600082815260200190815260200160002060009054906101000a900460ff165b6122a0576040517f08c379a000000000000000000000000000000000000000000000000000000000815260040161229790613ef2565b60405180910390fd5b6122ab8383836129cb565b505050565b505050565b6122bf8282610fcf565b61234e576122e48173ffffffffffffffffffffffffffffffffffffffff1660146129db565b6122f28360001c60206129db565b604051602001612303929190613d19565b6040516020818303038152906040526040517f08c379a00000000000000000000000000000000000000000000000000000000081526004016123459190613df0565b60405180910390fd5b5050565b61235c8282610fcf565b1561242f57600080600084815260200190815260200160002060000160008373ffffffffffffffffffffffffffffffffffffffff1673ffffffffffffffffffffffffffffffffffffffff16815260200190815260200160002060006101000a81548160ff0219169083151502179055506123d46115eb565b73ffffffffffffffffffffffffffffffffffffffff168173ffffffffffffffffffffffffffffffffffffffff16837ff6391f5c32d9c69d2a47ea670b442974b53935d1edc7fd64eb21e047a839171b60405160405180910390a45b5050565b600061245b836000018373ffffffffffffffffffffffffffffffffffffffff1660001b612cd5565b905092915050565b61246b610d15565b6124aa576040517f08c379a00000000000000000000000000000000000000000000000000000000081526004016124a190613e52565b60405180910390fd5b565b6124b4610d15565b156124f4576040517f08c379a00000000000000000000000000000000000000000000000000000000081526004016124eb90613f72565b60405180910390fd5b565b6000826000018281548110612534577f4e487b7100000000000000000000000000000000000000000000000000000000600052603260045260246000fd5b9060005260206000200154905092915050565b60006125688473ffffffffffffffffffffffffffffffffffffffff16612e5b565b156126d1578373ffffffffffffffffffffffffffffffffffffffff1663150b7a026125916115eb565b8786866040518563ffffffff1660e01b81526004016125b39493929190613d6e565b602060405180830381600087803b1580156125cd57600080fd5b505af19250505080156125fe57506040513d601f19601f820116820180604052508101906125fb91906137f1565b60015b612681573d806000811461262e576040519150601f19603f3d011682016040523d82523d6000602084013e612633565b606091505b50600081511415612679576040517f08c379a000000000000000000000000000000000000000000000000000000000815260040161267090613e92565b60405180910390fd5b805181602001fd5b63150b7a0260e01b7bffffffffffffffffffffffffffffffffffffffffffffffffffffffff1916817bffffffffffffffffffffffffffffffffffffffffffffffffffffffff1916149150506126d6565b600190505b949350505050565b6060600e80546126ed906143ee565b80601f0160208091040260200160405190810160405280929190818152602001828054612719906143ee565b80156127665780601f1061273b57610100808354040283529160200191612766565b820191906000526020600020905b81548152906001019060200180831161274957829003601f168201915b5050505050905090565b606060008214156127b8576040518060400160405280600181526020017f30000000000000000000000000000000000000000000000000000000000000008152509050612918565b600082905060005b600082146127ea5780806127d390614451565b915050600a826127e39190614245565b91506127c0565b60008167ffffffffffffffff81111561282c577f4e487b7100000000000000000000000000000000000000000000000000000000600052604160045260246000fd5b6040519080825280601f01601f19166020018201604052801561285e5781602001600182028036833780820191505090505b5090505b600085146129115760018261287791906142d0565b9150600a85612886919061449a565b603061289291906141ef565b60f81b8183815181106128ce577f4e487b7100000000000000000000000000000000000000000000000000000000600052603260045260246000fd5b60200101907effffffffffffffffffffffffffffffffffffffffffffffffffffffffffffff1916908160001a905350600a8561290a9190614245565b9450612862565b8093505050505b919050565b600081600001805490509050919050565b600080836001016000848152602001908152602001600020541415905092915050565b60007f5a05180f000000000000000000000000000000000000000000000000000000007bffffffffffffffffffffffffffffffffffffffffffffffffffffffff1916827bffffffffffffffffffffffffffffffffffffffffffffffffffffffff191614806129c457506129c382612e7e565b5b9050919050565b6129d6838383612ef8565b505050565b6060600060028360026129ee9190614276565b6129f891906141ef565b67ffffffffffffffff811115612a37577f4e487b7100000000000000000000000000000000000000000000000000000000600052604160045260246000fd5b6040519080825280601f01601f191660200182016040528015612a695781602001600182028036833780820191505090505b5090507f300000000000000000000000000000000000000000000000000000000000000081600081518110612ac7577f4e487b7100000000000000000000000000000000000000000000000000000000600052603260045260246000fd5b60200101907effffffffffffffffffffffffffffffffffffffffffffffffffffffffffffff1916908160001a9053507f780000000000000000000000000000000000000000000000000000000000000081600181518110612b51577f4e487b7100000000000000000000000000000000000000000000000000000000600052603260045260246000fd5b60200101907effffffffffffffffffffffffffffffffffffffffffffffffffffffffffffff1916908160001a90535060006001846002612b919190614276565b612b9b91906141ef565b90505b6001811115612c87577f3031323334353637383961626364656600000000000000000000000000000000600f861660108110612c03577f4e487b7100000000000000000000000000000000000000000000000000000000600052603260045260246000fd5b1a60f81b828281518110612c40577f4e487b7100000000000000000000000000000000000000000000000000000000600052603260045260246000fd5b60200101907effffffffffffffffffffffffffffffffffffffffffffffffffffffffffffff1916908160001a905350600485901c945080612c80906143c4565b9050612b9e565b5060008414612ccb576040517f08c379a0000000000000000000000000000000000000000000000000000000008152600401612cc290613e12565b60405180910390fd5b8091505092915050565b60008083600101600084815260200190815260200160002054905060008114612e4f576000600182612d0791906142d0565b9050600060018660000180549050612d1f91906142d0565b9050818114612dda576000866000018281548110612d66577f4e487b7100000000000000000000000000000000000000000000000000000000600052603260045260246000fd5b9060005260206000200154905080876000018481548110612db0577f4e487b7100000000000000000000000000000000000000000000000000000000600052603260045260246000fd5b90600052602060002001819055508387600101600083815260200190815260200160002081905550505b85600001805480612e14577f4e487b7100000000000000000000000000000000000000000000000000000000600052603160045260246000fd5b600190038181906000526020600020016000905590558560010160008681526020019081526020016000206000905560019350505050612e55565b60009150505b92915050565b6000808273ffffffffffffffffffffffffffffffffffffffff163b119050919050565b60007f7965db0b000000000000000000000000000000000000000000000000000000007bffffffffffffffffffffffffffffffffffffffffffffffffffffffff1916827bffffffffffffffffffffffffffffffffffffffffffffffffffffffff19161480612ef15750612ef082612f50565b5b9050919050565b612f03838383612fba565b612f0b610d15565b15612f4b576040517f08c379a0000000000000000000000000000000000000000000000000000000008152600401612f4290613e32565b60405180910390fd5b505050565b60007f01ffc9a7000000000000000000000000000000000000000000000000000000007bffffffffffffffffffffffffffffffffffffffffffffffffffffffff1916827bffffffffffffffffffffffffffffffffffffffffffffffffffffffff1916149050919050565b612fc58383836130ce565b600073ffffffffffffffffffffffffffffffffffffffff168373ffffffffffffffffffffffffffffffffffffffff16141561300857613003816130d3565b613047565b8173ffffffffffffffffffffffffffffffffffffffff168373ffffffffffffffffffffffffffffffffffffffff161461304657613045838261311c565b5b5b600073ffffffffffffffffffffffffffffffffffffffff168273ffffffffffffffffffffffffffffffffffffffff16141561308a5761308581613289565b6130c9565b8273ffffffffffffffffffffffffffffffffffffffff168273ffffffffffffffffffffffffffffffffffffffff16146130c8576130c782826133cc565b5b5b505050565b505050565b600a80549050600b600083815260200190815260200160002081905550600a81908060018154018082558091505060019003906000526020600020016000909190919091505550565b6000600161312984610e6e565b61313391906142d0565b9050600060096000848152602001908152602001600020549050818114613218576000600860008673ffffffffffffffffffffffffffffffffffffffff1673ffffffffffffffffffffffffffffffffffffffff168152602001908152602001600020600084815260200190815260200160002054905080600860008773ffffffffffffffffffffffffffffffffffffffff1673ffffffffffffffffffffffffffffffffffffffff168152602001908152602001600020600084815260200190815260200160002081905550816009600083815260200190815260200160002081905550505b6009600084815260200190815260200160002060009055600860008573ffffffffffffffffffffffffffffffffffffffff1673ffffffffffffffffffffffffffffffffffffffff16815260200190815260200160002060008381526020019081526020016000206000905550505050565b60006001600a8054905061329d91906142d0565b90506000600b60008481526020019081526020016000205490506000600a83815481106132f3577f4e487b7100000000000000000000000000000000000000000000000000000000600052603260045260246000fd5b9060005260206000200154905080600a838154811061333b577f4e487b7100000000000000000000000000000000000000000000000000000000600052603260045260246000fd5b906000526020600020018190555081600b600083815260200190815260200160002081905550600b600085815260200190815260200160002060009055600a8054806133b0577f4e487b7100000000000000000000000000000000000000000000000000000000600052603160045260246000fd5b6001900381819060005260206000200160009055905550505050565b60006133d783610e6e565b905081600860008573ffffffffffffffffffffffffffffffffffffffff1673ffffffffffffffffffffffffffffffffffffffff168152602001908152602001600020600083815260200190815260200160002081905550806009600084815260200190815260200160002081905550505050565b600061345e6134598461417b565b614156565b90508281526020810184848401111561347657600080fd5b613481848285614382565b509392505050565b60008135905061349881614c4b565b92915050565b6000813590506134ad81614c62565b92915050565b6000813590506134c281614c79565b92915050565b6000813590506134d781614c90565b92915050565b6000815190506134ec81614c90565b92915050565b600082601f83011261350357600080fd5b813561351384826020860161344b565b91505092915050565b60008135905061352b81614ca7565b92915050565b60006020828403121561354357600080fd5b600061355184828501613489565b91505092915050565b6000806040838503121561356d57600080fd5b600061357b85828601613489565b925050602061358c85828601613489565b9150509250929050565b6000806000606084860312156135ab57600080fd5b60006135b986828701613489565b93505060206135ca86828701613489565b92505060406135db8682870161351c565b9150509250925092565b600080600080608085870312156135fb57600080fd5b600061360987828801613489565b945050602061361a87828801613489565b935050604061362b8782880161351c565b925050606085013567ffffffffffffffff81111561364857600080fd5b613654878288016134f2565b91505092959194509250565b6000806040838503121561367357600080fd5b600061368185828601613489565b92505060206136928582860161349e565b9150509250929050565b600080604083850312156136af57600080fd5b60006136bd85828601613489565b92505060206136ce8582860161351c565b9150509250929050565b6000806000606084860312156136ed57600080fd5b60006136fb86828701613489565b935050602061370c8682870161351c565b925050604061371d868287016134b3565b9150509250925092565b60006020828403121561373957600080fd5b6000613747848285016134b3565b91505092915050565b6000806040838503121561376357600080fd5b6000613771858286016134b3565b925050602061378285828601613489565b9150509250929050565b6000806040838503121561379f57600080fd5b60006137ad858286016134b3565b92505060206137be8582860161351c565b9150509250929050565b6000602082840312156137da57600080fd5b60006137e8848285016134c8565b91505092915050565b60006020828403121561380357600080fd5b6000613811848285016134dd565b91505092915050565b60006020828403121561382c57600080fd5b600061383a8482850161351c565b91505092915050565b61384c81614304565b82525050565b61385b81614316565b82525050565b61386a81614322565b82525050565b600061387b826141ac565b61388581856141c2565b9350613895818560208601614391565b61389e81614587565b840191505092915050565b60006138b4826141b7565b6138be81856141d3565b93506138ce818560208601614391565b6138d781614587565b840191505092915050565b60006138ed826141b7565b6138f781856141e4565b9350613907818560208601614391565b80840191505092915050565b60006139206020836141d3565b915061392b82614598565b602082019050919050565b6000613943602b836141d3565b915061394e826145c1565b604082019050919050565b60006139666014836141d3565b915061397182614610565b602082019050919050565b6000613989602b836141d3565b915061399482614639565b604082019050919050565b60006139ac6032836141d3565b91506139b782614688565b604082019050919050565b60006139cf6025836141d3565b91506139da826146d7565b604082019050919050565b60006139f2601c836141d3565b91506139fd82614726565b602082019050919050565b6000613a15601b836141d3565b9150613a208261474f565b602082019050919050565b6000613a38603e836141d3565b9150613a4382614778565b604082019050919050565b6000613a5b6024836141d3565b9150613a66826147c7565b604082019050919050565b6000613a7e6019836141d3565b9150613a8982614816565b602082019050919050565b6000613aa16010836141d3565b9150613aac8261483f565b602082019050919050565b6000613ac46029836141d3565b9150613acf82614868565b604082019050919050565b6000613ae76024836141d3565b9150613af2826148b7565b604082019050919050565b6000613b0a603e836141d3565b9150613b1582614906565b604082019050919050565b6000613b2d6020836141d3565b9150613b3882614955565b602082019050919050565b6000613b506005836141e4565b9150613b5b8261497e565b600582019050919050565b6000613b736018836141d3565b9150613b7e826149a7565b602082019050919050565b6000613b966021836141d3565b9150613ba1826149d0565b604082019050919050565b6000613bb9602c836141d3565b9150613bc482614a1f565b604082019050919050565b6000613bdc6017836141e4565b9150613be782614a6e565b601782019050919050565b6000613bff603d836141d3565b9150613c0a82614a97565b604082019050919050565b6000613c22602e836141d3565b9150613c2d82614ae6565b604082019050919050565b6000613c456032836141d3565b9150613c5082614b35565b604082019050919050565b6000613c686040836141d3565b9150613c7382614b84565b604082019050919050565b6000613c8b6011836141e4565b9150613c9682614bd3565b601182019050919050565b6000613cae602f836141d3565b9150613cb982614bfc565b604082019050919050565b613ccd81614378565b82525050565b6000613cdf82856138e2565b9150613ceb82846138e2565b91508190509392505050565b6000613d0382846138e2565b9150613d0e82613b43565b915081905092915050565b6000613d2482613bcf565b9150613d3082856138e2565b9150613d3b82613c7e565b9150613d4782846138e2565b91508190509392505050565b6000602082019050613d686000830184613843565b92915050565b6000608082019050613d836000830187613843565b613d906020830186613843565b613d9d6040830185613cc4565b8181036060830152613daf8184613870565b905095945050505050565b6000602082019050613dcf6000830184613852565b92915050565b6000602082019050613dea6000830184613861565b92915050565b60006020820190508181036000830152613e0a81846138a9565b905092915050565b60006020820190508181036000830152613e2b81613913565b9050919050565b60006020820190508181036000830152613e4b81613936565b9050919050565b60006020820190508181036000830152613e6b81613959565b9050919050565b60006020820190508181036000830152613e8b8161397c565b9050919050565b60006020820190508181036000830152613eab8161399f565b9050919050565b60006020820190508181036000830152613ecb816139c2565b9050919050565b60006020820190508181036000830152613eeb816139e5565b9050919050565b60006020820190508181036000830152613f0b81613a08565b9050919050565b60006020820190508181036000830152613f2b81613a2b565b9050919050565b60006020820190508181036000830152613f4b81613a4e565b9050919050565b60006020820190508181036000830152613f6b81613a71565b9050919050565b60006020820190508181036000830152613f8b81613a94565b9050919050565b60006020820190508181036000830152613fab81613ab7565b9050919050565b60006020820190508181036000830152613fcb81613ada565b9050919050565b60006020820190508181036000830152613feb81613afd565b9050919050565b6000602082019050818103600083015261400b81613b20565b9050919050565b6000602082019050818103600083015261402b81613b66565b9050919050565b6000602082019050818103600083015261404b81613b89565b9050919050565b6000602082019050818103600083015261406b81613bac565b9050919050565b6000602082019050818103600083015261408b81613bf2565b9050919050565b600060208201905081810360008301526140ab81613c15565b9050919050565b600060208201905081810360008301526140cb81613c38565b9050919050565b600060208201905081810360008301526140eb81613c5b565b9050919050565b6000602082019050818103600083015261410b81613ca1565b9050919050565b60006020820190506141276000830184613cc4565b92915050565b60006040820190506141426000830185613cc4565b61414f6020830184613843565b9392505050565b6000614160614171565b905061416c8282614420565b919050565b6000604051905090565b600067ffffffffffffffff82111561419657614195614558565b5b61419f82614587565b9050602081019050919050565b600081519050919050565b600081519050919050565b600082825260208201905092915050565b600082825260208201905092915050565b600081905092915050565b60006141fa82614378565b915061420583614378565b9250827fffffffffffffffffffffffffffffffffffffffffffffffffffffffffffffffff0382111561423a576142396144cb565b5b828201905092915050565b600061425082614378565b915061425b83614378565b92508261426b5761426a6144fa565b5b828204905092915050565b600061428182614378565b915061428c83614378565b9250817fffffffffffffffffffffffffffffffffffffffffffffffffffffffffffffffff04831182151516156142c5576142c46144cb565b5b828202905092915050565b60006142db82614378565b91506142e683614378565b9250828210156142f9576142f86144cb565b5b828203905092915050565b600061430f82614358565b9050919050565b60008115159050919050565b6000819050919050565b60007fffffffff0000000000000000000000000000000000000000000000000000000082169050919050565b600073ffffffffffffffffffffffffffffffffffffffff82169050919050565b6000819050919050565b82818337600083830152505050565b60005b838110156143af578082015181840152602081019050614394565b838111156143be576000848401525b50505050565b60006143cf82614378565b915060008214156143e3576143e26144cb565b5b600182039050919050565b6000600282049050600182168061440657607f821691505b6020821081141561441a57614419614529565b5b50919050565b61442982614587565b810181811067ffffffffffffffff8211171561444857614447614558565b5b80604052505050565b600061445c82614378565b91507fffffffffffffffffffffffffffffffffffffffffffffffffffffffffffffffff82141561448f5761448e6144cb565b5b600182019050919050565b60006144a582614378565b91506144b083614378565b9250826144c0576144bf6144fa565b5b828206905092915050565b7f4e487b7100000000000000000000000000000000000000000000000000000000600052601160045260246000fd5b7f4e487b7100000000000000000000000000000000000000000000000000000000600052601260045260246000fd5b7f4e487b7100000000000000000000000000000000000000000000000000000000600052602260045260246000fd5b7f4e487b7100000000000000000000000000000000000000000000000000000000600052604160045260246000fd5b6000601f19601f8301169050919050565b7f537472696e67733a20686578206c656e67746820696e73756666696369656e74600082015250565b7f4552433732315061757361626c653a20746f6b656e207472616e73666572207760008201527f68696c6520706175736564000000000000000000000000000000000000000000602082015250565b7f5061757361626c653a206e6f7420706175736564000000000000000000000000600082015250565b7f455243373231456e756d657261626c653a206f776e657220696e646578206f7560008201527f74206f6620626f756e6473000000000000000000000000000000000000000000602082015250565b7f4552433732313a207472616e7366657220746f206e6f6e20455243373231526560008201527f63656976657220696d706c656d656e7465720000000000000000000000000000602082015250565b7f4552433732313a207472616e736665722066726f6d20696e636f72726563742060008201527f6f776e6572000000000000000000000000000000000000000000000000000000602082015250565b7f4552433732313a20746f6b656e20616c7265616479206d696e74656400000000600082015250565b7f4169736874697369546f6b656e3a20546f6b656e206c6f636b65640000000000600082015250565b7f4552433732315072657365744d696e7465725061757365724175746f49643a2060008201527f6d75737420686176652070617573657220726f6c6520746f2070617573650000602082015250565b7f4552433732313a207472616e7366657220746f20746865207a65726f2061646460008201527f7265737300000000000000000000000000000000000000000000000000000000602082015250565b7f4552433732313a20617070726f766520746f2063616c6c657200000000000000600082015250565b7f5061757361626c653a2070617573656400000000000000000000000000000000600082015250565b7f4552433732313a2061646472657373207a65726f206973206e6f74206120766160008201527f6c6964206f776e65720000000000000000000000000000000000000000000000602082015250565b7f4169736874697369546f6b656e3a20556e6c6f636b20436f646520496e636f7260008201527f7265637400000000000000000000000000000000000000000000000000000000602082015250565b7f4552433732313a20617070726f76652063616c6c6572206973206e6f7420746f60008201527f6b656e206f776e6572206e6f7220617070726f76656420666f7220616c6c0000602082015250565b7f4552433732313a206d696e7420746f20746865207a65726f2061646472657373600082015250565b7f2e6a736f6e000000000000000000000000000000000000000000000000000000600082015250565b7f4552433732313a20696e76616c696420746f6b656e2049440000000000000000600082015250565b7f4552433732313a20617070726f76616c20746f2063757272656e74206f776e6560008201527f7200000000000000000000000000000000000000000000000000000000000000602082015250565b7f455243373231456e756d657261626c653a20676c6f62616c20696e646578206f60008201527f7574206f6620626f756e64730000000000000000000000000000000000000000602082015250565b7f416363657373436f6e74726f6c3a206163636f756e7420000000000000000000600082015250565b7f4552433732315072657365744d696e7465725061757365724175746f49643a2060008201527f6d7573742068617665206d696e74657220726f6c6520746f206d696e74000000602082015250565b7f4552433732313a2063616c6c6572206973206e6f7420746f6b656e206f776e6560008201527f72206e6f7220617070726f766564000000000000000000000000000000000000602082015250565b7f4169736874697369546f6b656e3a204f6e6c7920746865204f776e657220636160008201527f6e20756e6c6f636b2074686520546f6b656e0000000000000000000000000000602082015250565b7f4552433732315072657365744d696e7465725061757365724175746f49643a2060008201527f6d75737420686176652070617573657220726f6c6520746f20756e7061757365602082015250565b7f206973206d697373696e6720726f6c6520000000000000000000000000000000600082015250565b7f416363657373436f6e74726f6c3a2063616e206f6e6c792072656e6f756e636560008201527f20726f6c657320666f722073656c660000000000000000000000000000000000602082015250565b614c5481614304565b8114614c5f57600080fd5b50565b614c6b81614316565b8114614c7657600080fd5b50565b614c8281614322565b8114614c8d57600080fd5b50565b614c998161432c565b8114614ca457600080fd5b50565b614cb081614378565b8114614cbb57600080fd5b5056fea26469706673582212200745a45b09c3c636c1a95a709b44a81ed75c0a99b18d0297947b1edf8f6416de64736f6c63430008030033",
  "immutableReferences": {},
  "source": "// SPDX-License-Identifier: MIT\r\npragma solidity 0.8.3;\r\n\r\nimport \"@openzeppelin/contracts/token/ERC721/presets/ERC721PresetMinterPauserAutoId.sol\";\r\nimport \"@openzeppelin/contracts/utils/Counters.sol\";\r\n\r\ncontract AisthisiToken is ERC721PresetMinterPauserAutoId {\r\n    using Counters for Counters.Counter;\r\n    Counters.Counter private _tokenIds;\r\n\r\n    mapping (uint => uint) public tokenLockedFromTimestamp;\r\n    mapping (uint => bytes32) public tokenUnlockCodeHashes;\r\n    mapping (uint => bool) public tokenUnlocked;\r\n\r\n    event TokenUnlocked(uint tokenId, address unlockerAddress);\r\n\r\n    constructor() ERC721PresetMinterPauserAutoId(\"AisthisiToken\", \"AIS\", \"https://aisthisi.art/metadata/\") {}\r\n\r\n    function _beforeTokenTransfer(address from, address to, uint256 tokenId) internal override {\r\n        require(tokenLockedFromTimestamp[tokenId] > block.timestamp || tokenUnlocked[tokenId], \"AishtisiToken: Token locked\");\r\n        super._beforeTokenTransfer(from, to, tokenId);\r\n    }\r\n\r\n    function unlockToken(bytes32 unlockHash, uint256 tokenId) public {\r\n        require(msg.sender == ownerOf(tokenId), \"AishtisiToken: Only the Owner can unlock the Token\"); //not 100% sure about that one yet\r\n        require(keccak256(abi.encode(unlockHash)) == tokenUnlockCodeHashes[tokenId], \"AishtisiToken: Unlock Code Incorrect\");\r\n        tokenUnlocked[tokenId] = true;\r\n        emit TokenUnlocked(tokenId, msg.sender);\r\n    }\r\n\r\n    /**\r\n    * This one is the mint function that sets the unlock code, then calls the parent mint\r\n    */\r\n    function mint(address to, uint lockedFromTimestamp, bytes32 unlockHash) public {\r\n        tokenLockedFromTimestamp[_tokenIds.current()] = lockedFromTimestamp;\r\n        tokenUnlockCodeHashes[_tokenIds.current()] = unlockHash;\r\n        _tokenIds.increment();\r\n        super.mint(to);\r\n    }\r\n\r\n    function tokenURI(uint256 tokenId) public view virtual override returns (string memory) {\r\n    return string(abi.encodePacked(super.tokenURI(tokenId),\".json\"));\r\n    }\r\n}\r\n",
  "sourcePath": "D:\\FACULDADE\\8 periodo\\TCC 2\\contrato\\contracts\\AisthisiToken.sol",
  "compiler": {
    "name": "solc",
    "version": "0.8.3+commit.8d00100c.Emscripten.clang"
  },
  "schemaVersion": "3.4.10",
  "updatedAt": "2022-10-06T02:38:58.044Z",
  "networkType": "ethereum",
  "devdoc": {
    "kind": "dev",
    "methods": {
      "approve(address,uint256)": {
        "details": "See {IERC721-approve}."
      },
      "balanceOf(address)": {
        "details": "See {IERC721-balanceOf}."
      },
      "burn(uint256)": {
        "details": "Burns `tokenId`. See {ERC721-_burn}. Requirements: - The caller must own `tokenId` or be an approved operator."
      },
      "getApproved(uint256)": {
        "details": "See {IERC721-getApproved}."
      },
      "getRoleAdmin(bytes32)": {
        "details": "Returns the admin role that controls `role`. See {grantRole} and {revokeRole}. To change a role's admin, use {_setRoleAdmin}."
      },
      "getRoleMember(bytes32,uint256)": {
        "details": "Returns one of the accounts that have `role`. `index` must be a value between 0 and {getRoleMemberCount}, non-inclusive. Role bearers are not sorted in any particular way, and their ordering may change at any point. WARNING: When using {getRoleMember} and {getRoleMemberCount}, make sure you perform all queries on the same block. See the following https://forum.openzeppelin.com/t/iterating-over-elements-on-enumerableset-in-openzeppelin-contracts/2296[forum post] for more information."
      },
      "getRoleMemberCount(bytes32)": {
        "details": "Returns the number of accounts that have `role`. Can be used together with {getRoleMember} to enumerate all bearers of a role."
      },
      "grantRole(bytes32,address)": {
        "details": "Grants `role` to `account`. If `account` had not been already granted `role`, emits a {RoleGranted} event. Requirements: - the caller must have ``role``'s admin role. May emit a {RoleGranted} event."
      },
      "hasRole(bytes32,address)": {
        "details": "Returns `true` if `account` has been granted `role`."
      },
      "isApprovedForAll(address,address)": {
        "details": "See {IERC721-isApprovedForAll}."
      },
      "mint(address)": {
        "details": "Creates a new token for `to`. Its token ID will be automatically assigned (and available on the emitted {IERC721-Transfer} event), and the token URI autogenerated based on the base URI passed at construction. See {ERC721-_mint}. Requirements: - the caller must have the `MINTER_ROLE`."
      },
      "name()": {
        "details": "See {IERC721Metadata-name}."
      },
      "ownerOf(uint256)": {
        "details": "See {IERC721-ownerOf}."
      },
      "pause()": {
        "details": "Pauses all token transfers. See {ERC721Pausable} and {Pausable-_pause}. Requirements: - the caller must have the `PAUSER_ROLE`."
      },
      "paused()": {
        "details": "Returns true if the contract is paused, and false otherwise."
      },
      "renounceRole(bytes32,address)": {
        "details": "Revokes `role` from the calling account. Roles are often managed via {grantRole} and {revokeRole}: this function's purpose is to provide a mechanism for accounts to lose their privileges if they are compromised (such as when a trusted device is misplaced). If the calling account had been revoked `role`, emits a {RoleRevoked} event. Requirements: - the caller must be `account`. May emit a {RoleRevoked} event."
      },
      "revokeRole(bytes32,address)": {
        "details": "Revokes `role` from `account`. If `account` had been granted `role`, emits a {RoleRevoked} event. Requirements: - the caller must have ``role``'s admin role. May emit a {RoleRevoked} event."
      },
      "safeTransferFrom(address,address,uint256)": {
        "details": "See {IERC721-safeTransferFrom}."
      },
      "safeTransferFrom(address,address,uint256,bytes)": {
        "details": "See {IERC721-safeTransferFrom}."
      },
      "setApprovalForAll(address,bool)": {
        "details": "See {IERC721-setApprovalForAll}."
      },
      "supportsInterface(bytes4)": {
        "details": "See {IERC165-supportsInterface}."
      },
      "symbol()": {
        "details": "See {IERC721Metadata-symbol}."
      },
      "tokenByIndex(uint256)": {
        "details": "See {IERC721Enumerable-tokenByIndex}."
      },
      "tokenOfOwnerByIndex(address,uint256)": {
        "details": "See {IERC721Enumerable-tokenOfOwnerByIndex}."
      },
      "tokenURI(uint256)": {
        "details": "See {IERC721Metadata-tokenURI}."
      },
      "totalSupply()": {
        "details": "See {IERC721Enumerable-totalSupply}."
      },
      "transferFrom(address,address,uint256)": {
        "details": "See {IERC721-transferFrom}."
      },
      "unpause()": {
        "details": "Unpauses all token transfers. See {ERC721Pausable} and {Pausable-_unpause}. Requirements: - the caller must have the `PAUSER_ROLE`."
      }
    },
    "version": 1
  },
  "userdoc": {
    "kind": "user",
    "methods": {
      "mint(address,uint256,bytes32)": {
        "notice": "This one is the mint function that sets the unlock code, then calls the parent mint"
      }
    },
    "version": 1
  }
}